:0200000480007A
:100000007370043073504030971100109381819CBD
:1000100017010110130101FF9702000093820245AE
:100020007390523073F051301705000013054509E5
:10003000970500009385C5086300B5021796000078
:100040001306867163FAC5008322050023A05500BC
:1000500011059105E3EAC5FE179500001305C56F6C
:1000600097050010938505FA1386418663FAC5004B
:100070008322050023A0550011059105E3EAC5FE82
:10008000138541869385019A6377B5002320050087
:100090001105E36DB5FEEF00F00D174500001305E7
:1000A00085A3EF305022EF303026EF00B01A014523
:0A00B00081452920EF00504B01A00C
:1000BC004111179500001305A58A06C6EF40E047CD
:1000CC00B16537250110392113060008FD45375558
:1000DC00021029291795000013058588EF40E0458B
:1000EC00EF10C0580545A1461796000013068687E9
:1000FC008545EF007047B240014541018280000008
:10010C00A54723A4F1867D55828000007300501012
:10011C007300501073005010730050107300501087
:10012C00730050107300501073005010C5B70000CE
:10013C007D15854763E8A7000963014523A2650087
:10014C0082800100A5427D5523A451868280000047
:10015C0005458280000000000545828000000000FB
:10016C00D94723A4F1867D55828000000145828009
:10017C000000000001C57D5582800100411137351A
:10018C00011022C406C62E848521AA872300F40000
:10019C00B24022440545410182800000170700103F
:1001AC00130787021C439386019A3E95636CD50016
:1001BC0097F200109382426463E6A20008C33E8566
:1001CC0082800100FD573E858280000001114AC8E3
:1001DC004EC606CE22CC26CA52C42E89B289EF4016
:1001EC00A049630A05264A84330A39016386090A41
:1001FC00B3072A4193F07700A9446389001205479D
:10020C006382E0088942638750060D43638C600467
:10021C0091436381700415456386A0029945638BF5
:10022C00B000834509006381952237350110992E62
:10023C0013041900834504006381952037350110A0
:10024C0091260504834504006382951E3735011001
:10025C00152E0504834504006383951C3735011066
:10026C001526050483450400638495183735011061
:10027C00112E050483450400638C95183735011045
:10028C001126050483450400638C95160504373547
:10029C000110CD2C631C44094E85F2406244D244BB
:1002AC004249B249224A056182800100B545373581
:1002BC000110C92C834504003735011013091400B3
:1002CC00D1248345140063809508373501105D2CCB
:1002DC0083451900638695083735011065248345DD
:1002EC002900638C950837350110692C834539003A
:1002FC006382950A37350110712483454900638860
:10030C00950A37350110BD2C83455900638E950A2B
:10031C0037350110852C834569006384950C1304D3
:10032C00790037350110B92CE30844F783450400F4
:10033C00E38E95F637350110B1248345140013096B
:10034C001400E39495F8B54537350110252C8345F9
:10035C001400373501103D2483451900E39E95F6B2
:10036C00B54537350110392C834519003735011047
:10037C00112C83452900E39895F6B54537350110C6
:10038C0011248345290037350110ED2A83453900A6
:10039C00E39295F6B54537350110ED2283453900CA
:1003AC0037350110C52283454900E39C95F4B545CA
:1003BC0037350110C12A8345490037350110D92240
:1003CC0083455900E39695F4B545373501105D2A00
:1003DC008345590037350110752283456900E39038
:1003EC0095F4B54537350110712A8345690005BF71
:1003FC00B5453735011079228345040085BD0100D0
:10040C00B54537350110BD2A8345040041B50100BF
:10041C00B54537350110BD228345040085B5B5457A
:10042C00373501108522834504000DBDB5453735A0
:10043C000110892A8345040011BDB54537350110DB
:10044C00912283450400DDBBB545373501101D2ACB
:10045C0083450900D9BB7D5589B500005D7106C087
:10046C0012C216C41AC61EC82ACA2ECC32CE36D018
:10047C003AD23ED442DC46DEF2C0F6C2FAC4FEC624
:10048C00F322103416D6F322203416D8F32200307F
:10049C0016DA732520348A85D521B2527390123422
:1004AC00C25273902234D252739002308240124264
:1004BC00A2423243C2435245E2457246825612571B
:1004CC00A2576258F258064E964E264FB64F6161AF
:1004DC0073002030AA8719C5584D0145D98DCCCF52
:1004EC00828001007D55828000000000AA8709C52A
:1004FC000CC1D0C3014582807D558280AA8709C575
:10050C0001458CCB828001007D558280000000006B
:10051C00AA8709C50145CCCB828001007D5582801C
:10052C000000000001C948459352650013F5120004
:10053C00828001007D55828000000000AA871DCDBD
:10054C0017070010032787C8B355B702930200089A
:10055C00232655001308600C8D4801451383F5FFC5
:10056C009353830013F6F30FD0C39376F30F94C316
:10057C0023A4070123A61701828001007D558280E8
:10058C0000000000AA8739CDD84B937207026398FC
:10059C00020403A347019373030263920304C84B41
:1005AC00137605020DEED44B13F8060263190802FC
:1005BC0083A8470113FE080263130E0283AE4701A2
:1005CC0013FF0E02631D0F0083AF470113F70F02D9
:1005DC0019E783A2470113F30202E30703FA01456B
:1005EC008CC382807D55828025C15C4993F21700B3
:1005FC00639702040323450193731300639103046F
:10060C004C4913F6150005EE544913F7160005EB8B
:10061C00032845019378180063930802032E4501C3
:10062C00937E1E00639D0E00032F4501937F1F00D8
:10063C0063970F005C4993F21700E38802FA0841B4
:10064C001375F50F828001001305F00F82800000F6
:10065C00B7C7000203A787FF83A7C7FF411106C6D0
:10066C0022C426C237C60002032886FF8328C6FF91
:10067C00F32600B0631A0707032886FF8328C6FFFA
:10068C00F32600B063120707032886FF8328C6FFF2
:10069C00F32600B0631A0705032886FF8328C6FFDC
:1006AC00F32600B063120705032886FF8328C6FFD4
:1006BC00F32600B0631A0703032886FF8328C6FFBE
:1006CC00F32600B063120703032886FF8328C6FFB6
:1006DC00F32600B0631A0701032886FF8328C6FFA0
:1006EC00F32600B0E30207F9B7C0000283A280FF33
:1006FC0083A6C0FF732700B0631A580603A580FFBA
:10070C0083A5C0FF732700B06312A80603A380FF64
:10071C0083A5C0FF732700B0631A680483A380FF0E
:10072C0083A5C0FF732700B06312780403A480FF75
:10073C0083A5C0FF732700B0631A880283A480FFCF
:10074C0083A5C0FF732700B06312980283A680FFB5
:10075C0083A5C0FF732700B0631AD80083A880FF5D
:10076C0083A5C0FF732700B0E30218F983A680FFAE
:10077C0083A7C0FFB7C50002368E83AE85FF83A763
:10078C00C5FF732F00B0631BDE0783AE85FF83A705
:10079C00C5FF732F00B06313DE0783AE85FF83A7FD
:1007AC00C5FF732F00B0631BDE0583AE85FF83A7E7
:1007BC00C5FF732F00B06313DE0583AE85FF83A7DF
:1007CC00C5FF732F00B0631BDE0383AE85FF83A7C9
:1007DC00C5FF732F00B06313DE0383AE85FF83A7C1
:1007EC00C5FF732F00B0631BDE0183AE85FF83A7AB
:1007FC00C5FF732F00B0E302DEF90100B7CF000292
:10080C001307300683A78FFF83A6CFFF3384D7410E
:10081C00F32400B06368870803A68FFF83A6CFFF7D
:10082C003304D641F32400B0636E870603A88FFF10
:10083C0083A6CFFF3304D841F32400B0636487064A
:10084C0083A08FFF83A6CFFF3384D041F32400B065
:10085C00636A870483A28FFF83A6CFFF3384D241C0
:10086C00F32400B06360870403A58FFF83A6CFFF3A
:10087C003304D541F32400B06366870203A38FFFD2
:10088C0083A6CFFF3304D341F32400B0636C8700FD
:10089C0083A38FFF83A6CFFF3384D341F32400B00F
:1008AC00E37287F6B384E441B3F88402228681466E
:1008BC001395F80093D51801EF20306AB3D6840253
:1008CC00B2402244924441019395F6002E958280C9
:1008DC0000000000411122C42A8417850000130572
:1008EC00A5FB06C6EF305057A285178500001305EF
:1008FC00E5FBEF309044F325103417850000130509
:10090C00E5FBEF309043F3253034178500001305D9
:10091C00E5FBEF30904201A000000000411122C421
:10092C002A8417850000130565FB06C6EF30D052EC
:10093C00A28517850000130565F7EF301040F325ED
:10094C00103417850000130565F7EF30103FF325C1
:10095C0030342244B24017850000130525F74101BD
:10096C006F30B03D00000000B7B7C404938207405D
:10097C0017070010232C578482800000411106C6F3
:10098C0022C4AA87635805021318450193584801DD
:10099C002D4E6383C807939E2800138F8187B30F56
:1009AC00DF0183A70F0091C38297B2402244014517
:1009BC00410182809316450193D0460129462E872A
:1009CC0063641602939220009383018A338453004C
:1009DC0003230400E30B03FCBA853E850293B2406B
:1009EC002244014541018280170300001303C3EE2A
:1009FC00BA853E850293E5B7732740F1B700200C0A
:100A0C009316C700138640003383C60003240300EB
:100A1C00C142E3EC82F8931324001388C18CB30811
:100A2C00780003AE080063030E00029E732540F1AC
:100A3C00B70E200C9315C500138F4E00B38FE50134
:100A4C0023A08F009DB70000411106C622C40931B6
:100A5C00AA8717F4FF0F13046477B7050300372533
:100A6C0001101CC0853CF1659385052037350110BC
:100A7C00F134178600001306A6E7978500009385CE
:100A8C00E5E717850000130525E8EF30102B978557
:100A9C0000009385E5E9178500001305A5E9EF3003
:100AAC00D0290C4017850000130505EAEF30F0281B
:100ABC00970200009382C2E61387C18C17060000D0
:100ACC00130686E19386018A1383818790C2D0C274
:100ADC0090C6D0C690CAD0CA90CED0CE90D2D0D22A
:100AEC0090D6232057002322570023245700232677
:100AFC00570023285700232A5700232C5700232E56
:100B0C00570023205702232257022324570223265F
:100B1C00570223285702232A5702232C5702232E2D
:100B2C00570223205704232053002322530023244D
:100B3C0053002326530023285300232A5300232C2D
:100B4C005300232E53002320530223225302F3235A
:100B5C0040F13728000C13957300B308050103AE60
:100B6C000800B70E000C137FEEFF23A0E80123A0B2
:100B7C000E00F32F40F193977F00338407010C4054
:100B8C0013F6D5FF10C023A20E00F32640F193926A
:100B9C00760033870201032307009373B3FF2320EE
:100BAC00770023A40E00732540F193187500338E43
:100BBC000801032F0E00937F7FFF2320FE0123A645
:100BCC000E00F32740F113947700B3050401904114
:100BDC009376F6FE94C123A80E00F32240F11397EE
:100BEC007200330307018323030013F5F3FD232065
:100BFC00A30023AA0E00F32840F1139E7800330FB4
:100C0C000E01832F0F0093F7FFFB2320FF0023AC73
:100C1C000E00732440F193157400B38605019042C5
:100C2C009372F6F723A0560023AE0E00732740F103
:100C3C0013137700B303030103A503009378F5EFB7
:100C4C0023A0130123A00E02732E40F1131F7E006C
:100C5C00B30F0F0183A70F0013F4F7DF23A08F004E
:100C6C0023A20E02F32540F193967500B382060180
:100C7C0003A602001377F6BF23A0E20023A40E0202
:100C8C00732340F193137300B388030103AE080080
:100C9C007D7F1305FF7FB37FAE0023A0F80123A651
:100CAC000E02F32740F113947700B30604018C4233
:100CBC009302FFFF33F6550090C223A80E02732750
:100CCC0040F113137700B303030183A80300797E6B
:100CDC00130FFEFF33F5E80123A0A30023AA0E0295
:100CEC00F32F40F193977F00338407011440F17583
:100CFC009382F5FF33F6560010C023AC0E02732717
:100D0C0040F113137700B303030183A80300617E42
:100D1C00130FFEFF33F5E80123A0A30023AE0E0250
:100D2C00F32F40F193977F003E9803240800C1767F
:100D3C009385F6FFB372B4002320580023A00E0451
:100D4C00F32E40F13707200CB24022441396CE000C
:100D5C003303E600232003004101828082800000DF
:100D6C0082800000828000001D7186CEA2CCA6CAB3
:100D7C00CAC8CEC6D2C4D6C2DAC05EDE62DC66DABF
:100D8C006AD86ED68347060032CE2AC22ECC638E2A
:100D9C00074813F77600938305FB3689B330E000E0
:100DAC008D8213F4F30F135B1900B382D00021462C
:100DBC0022CA3383620319476303C9001A87931A43
:100DCC00070102C693DA0A01214A178D0000130DA0
:100DDC00ADDD930B0004138441860100B244D2486C
:100DEC00938C07FE138814009377F80FA30014015B
:100DFC009305C003375502103EC623820186EFF0DF
:100E0C00EFEFC14537550210EFF08FF0834504002A
:100E1C003755021013FCFC0FEFF04FEE9305000951
:100E2C0037550210EFF0CFEE834514003755021002
:100E3C00EFF0CFEC9305000937550210EFF04FEDB2
:100E4C0037550210EFF00FEE21C537550210EFF0B9
:100E5C006FED1DCD37550210EFF0CFEC15C937559E
:100E6C000210EFF02FEC0DC537550210EFF08FEBA1
:100E7C0005C137550210EFF0EFEA19C937550210CA
:100E8C00EFF04FEA11C537550210EFF0AFE94DF90D
:100E9C0037550210EFF00FE921C537550210EFF06E
:100EAC006FE81DCD37550210EFF0CFE715C9375558
:100EBC000210EFF02FE70DC537550210EFF08FE65B
:100ECC0005C137550210EFF0EFE519C9375502107F
:100EDC00EFF04FE511C537550210EFF0AFE44DF9C7
:100EEC001245238201869355450093E90501375538
:100EFC0002109305C003A30034014EC4EFF00FE0C1
:100F0C00C14537550210EFF0AFE08345040037556B
:100F1C000210EFF0AFDE9305000937550210EFF029
:100F2C002FDF8345140037550210EFF02FDD9305AA
:100F3C00000937550210EFF0AFDD37550210EFF016
:100F4C006FDE29C537550210EFF0CFDD21C13755C3
:100F5C000210EFF02FDD1DC937550210EFF08FDCBA
:100F6C0015C537550210EFF0EFDB0DC137550210E8
:100F7C00EFF04FDB01CD37550210EFF0AFDA19C5AA
:100F8C0037550210EFF00FDA4DF90100375502100A
:100F9C00EFF04FD921C537550210EFF0AFD81DCD6A
:100FAC0037550210EFF00FD815C937550210EFF076
:100FBC006FD70DC537550210EFF0CFD605C1375599
:100FCC000210EFF02FD619C937550210EFF08FD55C
:100FDC0011C537550210EFF0EFD44DF9924D930532
:100FEC00C0033755021093FDFD00A300B40123820A
:100FFC000186EFF0AFD0C14537550210EFF04FD15D
:10100C008345040037550210EFF04FCF93050009CC
:10101C0037550210EFF0CFCF83451400375502102F
:10102C00EFF0CFCD9305000937550210EFF04FCEFE
:10103C0037550210EFF00FCF21C537550210EFF0E6
:10104C006FCE1DCD37550210EFF0CFCD15C93755EA
:10105C000210EFF02FCD0DC537550210EFF08FCCED
:10106C0005C137550210EFF0EFCB19C937550210F7
:10107C00EFF04FCB11C537550210EFF0AFCA4DF959
:10108C0037550210EFF00FCA21C537550210EFF09B
:10109C006FC91DCD37550210EFF0CFC815C93755A4
:1010AC000210EFF02FC80DC537550210EFF08FC7A7
:1010BC0005C137550210EFF0EFC619C937550210AC
:1010CC00EFF04FC611C537550210EFF0AFC54DF913
:1010DC00638D0A12131E1C00B30E8E01E249139F7E
:1010EC001E00931C4C0081447AC8414CB3EF64033E
:1010FC00639C0F14631C4927C240978200009382A3
:10110C00E2869305C003B38614003383D200834375
:10111C0003003755021023007401A3007400EFF094
:10112C00EFBDC14537550210EFF08FBE834504006B
:10113C0037550210EFF08FBC93050009375502109C
:10114C00EFF00FBD8345140037550210EFF00FBBC5
:10115C009305000937550210EFF08FBB375502107D
:10116C00EFF04FBC21C537550210EFF0AFBB1DCDD2
:10117C0037550210EFF00FBB15C937550210EFF0C1
:10118C006FBA0DC537550210EFF0CFB905C1375501
:10119C000210EFF02FB919C937550210EFF08FB8C4
:1011AC0011C537550210EFF0EFB74DF93755021056
:1011BC00EFF04FB721C537550210EFF0AFB61DCD8C
:1011CC0037550210EFF00FB615C937550210EFF076
:1011DC006FB50DC537550210EFF0CFB405C13755BB
:1011EC000210EFF02FB419C937550210EFF08FB37E
:1011FC0011C537550210EFF0EFB24DF98504139578
:10120C00040193550501E3E355EF63184945124F6B
:10121C00930C6F0013FCFC0F62C2F24FB240B3860A
:10122C001F0083C70600E39B07BAF6406644D6440A
:10123C004649B649264A964A064BF25B625CD25C3A
:10124C00425DB25D25618280E30849EB63178941F9
:10125C00B3879401B308FD0003CE08009305C003C7
:10126C0037550210A300C40123007401EFF00FA93D
:10127C00C14537550210EFF0AFA98345040037552F
:10128C000210EFF0AFA79305000937550210EFF0ED
:10129C002FA88345140037550210EFF02FA69305A5
:1012AC00000937550210EFF0AFA637550210EFF0DA
:1012BC006FA729C537550210EFF0CFA621C13755BE
:1012CC000210EFF02FA61DC937550210EFF08FA5B5
:1012DC0015C537550210EFF0EFA40DC137550210AC
:1012EC00EFF04FA401CD37550210EFF0AFA319C5A5
:1012FC0037550210EFF00FA34DF9010037550210CE
:10130C00EFF04FA2E30C05EE37550210EFF08FA172
:10131C00E30605EE37550210EFF0CFA0E30005EE23
:10132C0037550210EFF00FA0E30A05EC3755021009
:10133C00EFF04F9FE30405EC37550210EFF08F9E52
:10134C00E30E05EA37550210EFF0CF9DE30805EAEE
:10135C0037550210EFF00F9D55F1850413950401DC
:10136C0093550501E3E455D94DB50100138809FBEC
:10137C0013861900A30004019305C003375502100E
:10138C009379F60F23820186EFF04F97C1453755BD
:10139C000210EFF0EF978345040037550210EFF081
:1013AC00EF959305000937550210EFF06F968345C2
:1013BC00140037550210EFF06F9493050009375560
:1013CC000210EFF0EF9437550210EFF0AF9529C5EE
:1013DC0037550210EFF00F9521C137550210EFF081
:1013EC006F941DC937550210EFF0CF9315C53755C3
:1013FC000210EFF02F930DC137550210EFF08F92C2
:10140C0001CD37550210EFF0EF9119C53755021089
:10141C00EFF04F914DF9010037550210EFF08F901E
:10142C0021C537550210EFF0EF8F1DCD3755021047
:10143C00EFF04F8F15C937550210EFF0AF8E0DC579
:10144C0037550210EFF00F8E05C137550210EFF033
:10145C006F8D19C937550210EFF0CF8C11C5375568
:10146C000210EFF02F8C4DF922479305C00337552E
:10147C000210A300E40023820186EFF02F88C145FF
:10148C0037550210EFF0CF88834504003755021012
:10149C00EFF0CF869305000937550210EFF04F8718
:1014AC008345140037550210EFF04F859305000962
:1014BC0037550210EFF0CF8537550210EFF08F86BD
:1014CC0021C537550210EFF0EF851DCD37550210B1
:1014DC00EFF04F8515C937550210EFF0AF840DC5ED
:1014EC0037550210EFF00F8405C137550210EFF09D
:1014FC006F8319C937550210EFF0CF8211C53755DC
:10150C000210EFF02F824DF937550210EFF08F815A
:10151C0021C537550210EFF0EF801DCD3755021065
:10152C00EFF04F8015C937550210EFE0BFFF0DC526
:10153C0037550210EFE01FFF05C137550210EFE0E1
:10154C007FFE19C937550210EFE0DFFD11C5375585
:10155C000210EFE03FFD4DF99305C0033755021023
:10156C00A300B40123820186EFE05FF9C145375532
:10157C000210EFE0FFF98345040037550210EFE04D
:10158C00FFF79305000937550210EFE07FF883450C
:10159C00140037550210EFE07FF69305000937551C
:1015AC000210EFE0FFF637550210EFE0BFF729C548
:1015BC0037550210EFE01FF721C137550210EFE04D
:1015CC007FF61DC937550210EFE0DFF515C537550D
:1015DC000210EFE03FF50DC137550210EFE09FF41C
:1015EC0001CD37550210EFE0FFF319C53755021046
:1015FC00EFE05FF34DF9010037550210EFE09FF279
:10160C00E30605C437550210EFE0DFF1E30005C433
:10161C0037550210EFE01FF1E30A05C237550210EF
:10162C00EFE05FF0E30405C237550210EFE09FEFE7
:10163C00E30E05C037550210EFE0DFEEE30805C0FE
:10164C0037550210EFE01FEEE30205C037550210CC
:10165C00EFE05FED55F1E30D89BF924DB30EBB0189
:10166C0093F9FE0F4EC255BE000000000111ED773C
:10167C0006CE22CC938007E0138441869305C003E9
:10168C00375502102310140026CA4AC84EC652C43D
:10169C0056C2EFE0BFE6C14537550210EFE05FE7F9
:1016AC008345040037550210EFE05FE59305000910
:1016BC0037550210EFE0DFE5834514003755021073
:1016CC00EFE0DFE39305000937550210EFE05FE42C
:1016DC0037550210EFE01FE521C537550210EFE03A
:1016EC007FE41DCD37550210EFE0DFE315C9375508
:1016FC000210EFE03FE30DC537550210EFE09FE21B
:10170C0005C137550210EFE0FFE119C9375502103A
:10171C00EFE05FE111C537550210EFE0BFE04DF986
:10172C0037550210EFE01FE021C537550210EFE0EE
:10173C007FDF1DCD37550210EFE0DFDE15C93755C1
:10174C000210EFE03FDE0DC537550210EFE09FDDD4
:10175C0005C137550210EFE0FFDC19C937550210EF
:10176C00EFE05FDC11C537550210EFE0BFDB4DF940
:10177C009305C0033755021023920186EFE01FD862
:10178C00C14537550210EFE0BFD8834504003755EB
:10179C000210EFE0BFD69305000937550210EFE0B9
:1017AC003FD78345140037550210EFE03FD5930522
:1017BC00000937550210EFE0BFD537550210EFE0A6
:1017CC007FD621C537550210EFE0DFD51DCD37553B
:1017DC000210EFE03FD515C937550210EFE09FD44A
:1017EC000DC537550210EFE0FFD305C13755021078
:1017FC00EFE05FD319C937550210EFE0BFD211C526
:10180C0037550210EFE01FD24DF937550210EFE0BB
:10181C007FD121C537550210EFE0DFD01DCD3755F4
:10182C000210EFE03FD015C937550210EFE09FCF03
:10183C000DC537550210EFE0FFCE05C1375502102C
:10184C00EFE05FCE19C937550210EFE0BFCD11C5DF
:10185C0037550210EFE01FCD4DF985629305C0039B
:10186C003755021023105400EFE05FC9C1453755BE
:10187C000210EFE0FFC98345040037550210EFE07A
:10188C00FFC79305000937550210EFE07FC8834569
:10189C00140037550210EFE07FC693050009375549
:1018AC000210EFE0FFC637550210EFE0BFC721C5AD
:1018BC0037550210EFE01FC71DCD37550210EFE072
:1018CC007FC615C937550210EFE0DFC50DC537557A
:1018DC000210EFE03FC505C137550210EFE09FC481
:1018EC0019C937550210EFE0FFC311C53755021067
:1018FC00EFE05FC34DF937550210EFE0BFC221C5D1
:10190C0037550210EFE01FC21DCD37550210EFE026
:10191C007FC115C937550210EFE0DFC00DC5375533
:10192C000210EFE03FC005C137550210EFE09FBF3A
:10193C0019C937550210EFE0FFBE11C5375502101B
:10194C00EFE05FBE4DF911639305C00337550210EC
:10195C0023106400EFE09FBAC14537550210EFE049
:10196C003FBB8345040037550210EFE03FB99305A8
:10197C00000937550210EFE0BFB983451400375505
:10198C000210EFE0BFB79305000937550210EFE0E6
:10199C003FB837550210EFE0FFB821C5375502109C
:1019AC00EFE05FB81DCD37550210EFE0BFB715C99A
:1019BC0037550210EFE01FB70DC537550210EFE099
:1019CC007FB605C137550210EFE0DFB519C93755A1
:1019DC000210EFE03FB511C537550210EFE09FB490
:1019EC004DF937550210EFE0FFB321C53755021002
:1019FC00EFE05FB31DCD37550210EFE0BFB215C954
:101A0C0037550210EFE01FB20DC537550210EFE04D
:101A1C007FB105C137550210EFE0DFB019C937555A
:101A2C000210EFE03FB011C537550210EFE09FAF49
:101A3C004DF9E173938403109305C00337550210DD
:101A4C0023109400EFE09FABC14537550210EFE037
:101A5C003FAC8345040037550210EFE03FAA9305D5
:101A6C00000937550210EFE0BFAA83451400375523
:101A7C000210EFE0BFA89305000937550210EFE004
:101A8C003FA937550210EFE0FFA921C537550210C9
:101A9C00EFE05FA91DCD37550210EFE0BFA815C9C7
:101AAC0037550210EFE01FA80DC537550210EFE0B7
:101ABC007FA705C137550210EFE0DFA619C93755CE
:101ACC000210EFE03FA611C537550210EFE09FA5BD
:101ADC004DF937550210EFE0FFA421C53755021020
:101AEC00EFE05FA41DCD37550210EFE0BFA315C981
:101AFC0037550210EFE01FA30DC537550210EFE06C
:101B0C007FA205C137550210EFE0DFA119C9375587
:101B1C000210EFE03FA111C537550210EFE09FA076
:101B2C004DF97576930606F09305C00337550210F0
:101B3C002310D400EFE09F9CC14537550210EFE015
:101B4C003F9D8345040037550210EFE03F9B930502
:101B5C00000937550210EFE0BF9B83451400375541
:101B6C000210EFE0BF999305000937550210EFE022
:101B7C003F9A37550210EFE0FF9A21C537550210F6
:101B8C00EFE05F9A1DCD37550210EFE0BF9915C9F4
:101B9C0037550210EFE01F990DC537550210EFE0D5
:101BAC007F9805C137550210EFE0DF9719C93755FB
:101BBC000210EFE03F9711C537550210EFE09F96EA
:101BCC004DF937550210EFE0FF9521C5375502103E
:101BDC00EFE05F951DCD37550210EFE0BF9415C9AE
:101BEC0037550210EFE01F940DC537550210EFE08A
:101BFC007F9305C137550210EFE0DF9219C93755B5
:101C0C000210EFE03F9211C537550210EFE09F91A3
:101C1C004DF96977130807109305C0033755021067
:101C2C0023100401EFE09F8DC14537550210EFE002
:101C3C003F8E8345040037550210EFE03F8C93052F
:101C4C00000937550210EFE0BF8C8345140037555F
:101C5C000210EFE0BF8A9305000937550210EFE040
:101C6C003F8B37550210EFE0FF8B21C53755021023
:101C7C00EFE05F8B1DCD37550210EFE0BF8A15C921
:101C8C0037550210EFE01F8A0DC537550210EFE0F3
:101C9C007F8905C137550210EFE0DF8819C9375528
:101CAC000210EFE03F8811C537550210EFE09F8717
:101CBC004DF937550210EFE0FF8621C5375502105C
:101CCC00EFE05F861DCD37550210EFE0BF8515C9DB
:101CDC0037550210EFE01F850DC537550210EFE0A8
:101CEC007F8405C137550210EFE0DF8319C93755E2
:101CFC000210EFE03F8311C537550210EFE09F82D1
:101D0C004DF9F578138908809305C00337550210F7
:101D1C0023102401EFE08FFEC14537550210EFE090
:101D2C002FFF8345040037550210EFE02FFD93057C
:101D3C00000937550210EFE0AFFD8345140037550D
:101D4C000210EFE0AFFB9305000937550210EFE0EE
:101D5C002FFC37550210EFE0EFFC21C53755021070
:101D6C00EFE04FFC1DCD37550210EFE0AFFB15C96E
:101D7C0037550210EFE00FFB0DC537550210EFE0A1
:101D8C006FFA05C137550210EFE0CFF919C9375575
:101D9C000210EFE02FF911C537550210EFE08FF864
:101DAC004DF937550210EFE0EFF721C5375502100A
:101DBC00EFE04FF71DCD37550210EFE0AFF615C928
:101DCC0037550210EFE00FF60DC537550210EFE056
:101DDC006FF505C137550210EFE0CFF419C937552F
:101DEC000210EFE02FF411C537550210EFE08FF31E
:101DFC004DF9E9799305C00337550210138A096030
:101E0C0023104401EFE08FEFC14537550210EFE08E
:101E1C002FF08345040037550210EFE02FEE9305A9
:101E2C00000937550210EFE0AFEE8345140037552B
:101E3C000210EFE0AFEC9305000937550210EFE00C
:101E4C002FED37550210EFE0EFED21C5375502109D
:101E5C00EFE04FED1DCD37550210EFE0AFEC15C99B
:101E6C0037550210EFE00FEC0DC537550210EFE0BF
:101E7C006FEB05C137550210EFE0CFEA19C93755A2
:101E8C000210EFE02FEA11C537550210EFE08FE991
:101E9C004DF937550210EFE0EFE821C53755021028
:101EAC00EFE04FE81DCD37550210EFE0AFE715C955
:101EBC0037550210EFE00FE70DC537550210EFE074
:101ECC006FE605C137550210EFE0CFE519C937555C
:101EDC000210EFE02FE511C537550210EFE08FE44B
:101EEC004DF9ED7A138E0A809305C0033755021015
:101EFC002310C401EFE08FE0C14537550210EFE02D
:101F0C002FE18345040037550210EFE02FDF9305D6
:101F1C00000937550210EFE0AFDF83451400375549
:101F2C000210EFE0AFDD9305000937550210EFE02A
:101F3C002FDE37550210EFE0EFDE21C537550210CA
:101F4C00EFE04FDE1DCD37550210EFE0AFDD15C9C8
:101F5C0037550210EFE00FDD0DC537550210EFE0DD
:101F6C006FDC05C137550210EFE0CFDB19C93755CF
:101F7C000210EFE02FDB11C537550210EFE08FDABE
:101F8C004DF937550210EFE0EFD921C53755021046
:101F9C00EFE04FD91DCD37550210EFE0AFD815C982
:101FAC0037550210EFE00FD80DC537550210EFE092
:101FBC006FD705C137550210EFE0CFD619C9375589
:101FCC000210EFE02FD611C537550210EFE08FD578
:101FDC004DF9916E138F0EF09305C0033755021017
:101FEC002310E401EFE08FD1C14537550210EFE02B
:101FFC002FD28345040037550210EFE02FD0930504
:10200C00000937550210EFE0AFD083451400375567
:10201C000210EFE0AFCE9305000937550210EFE048
:10202C002FCF37550210EFE0EFCF21C537550210F7
:10203C00EFE04FCF1DCD37550210EFE0AFCE15C9F5
:10204C0037550210EFE00FCE0DC537550210EFE0FB
:10205C006FCD05C137550210EFE0CFCC19C93755FC
:10206C000210EFE02FCC11C537550210EFE08FCBEB
:10207C004DF937550210EFE0EFCA21C53755021064
:10208C00EFE04FCA1DCD37550210EFE0AFC915C9AF
:10209C0037550210EFE00FC90DC537550210EFE0B0
:1020AC006FC805C137550210EFE0CFC719C93755B6
:1020BC000210EFE02FC711C537550210EFE08FC6A5
:1020CC004DF9F57F93870F309305C00337550210F8
:1020DC002310F400EFE08FC2C14537550210EFE03A
:1020EC002FC38345040037550210EFE02FC1930531
:1020FC00000937550210EFE0AFC183451400375586
:10210C000210EFE0AFBF9305000937550210EFE066
:10211C002FC037550210EFE0EFC021C53755021024
:10212C00EFE04FC01DCD37550210EFE0AFBF15C922
:10213C0037550210EFE00FBF0DC537550210EFE019
:10214C006FBE05C137550210EFE0CFBD19C9375529
:10215C000210EFE02FBD11C537550210EFE08FBC18
:10216C004DF937550210EFE0EFBB21C53755021082
:10217C00EFE04FBB1DCD37550210EFE0AFBA15C9DC
:10218C0037550210EFE00FBA0DC537550210EFE0CE
:10219C006FB905C137550210EFE0CFB819C93755E3
:1021AC000210EFE02FB811C537550210EFE08FB7D2
:1021BC004DF99305C0033755021023920186EFE0C9
:1021CC00EFB3C14537550210EFE08FB483450400DF
:1021DC0037550210EFE08FB2930500093755021006
:1021EC00EFE00FB38345140037550210EFE00FB149
:1021FC009305000937550210EFE08FB137550210E7
:10220C00EFE04FB221C537550210EFE0AFB11DCD55
:10221C0037550210EFE00FB115C937550210EFE03A
:10222C006FB00DC537550210EFE0CFAF05C1375574
:10223C000210EFE02FAF19C937550210EFE08FAE47
:10224C0011C537550210EFE0EFAD4DF937550210BF
:10225C00EFE04FAD21C537550210EFE0AFAC1DCD0F
:10226C0037550210EFE00FAC15C937550210EFE0EF
:10227C006FAB0DC537550210EFE0CFAA05C137552E
:10228C000210EFE02FAA19C937550210EFE08FA901
:10229C0011C537550210EFE0EFA84DF9F570938298
:1022AC0000509305C0033755021023105400EFE083
:1022BC00EFA4C14537550210EFE08FA5834504000C
:1022CC0037550210EFE08FA3930500093755021024
:1022DC00EFE00FA48345140037550210EFE00FA276
:1022EC009305000937550210EFE08FA23755021005
:1022FC00EFE04FA321C537550210EFE0AFA21DCD83
:10230C0037550210EFE00FA215C937550210EFE058
:10231C006FA10DC537550210EFE0CFA005C13755A1
:10232C000210EFE02FA019C937550210EFE08F9F74
:10233C0011C537550210EFE0EF9E4DF937550210DD
:10234C00EFE04F9E21C537550210EFE0AF9D1DCD3C
:10235C0037550210EFE00F9D15C937550210EFE00D
:10236C006F9C0DC537550210EFE0CF9B05C137555B
:10237C000210EFE02F9B19C937550210EFE08F9A2E
:10238C0011C537550210EFE0EF994DF961739305C4
:10239C00C0033755021023106400EFE02F96C1459F
:1023AC0037550210EFE0CF968345040037550210E5
:1023BC00EFE0CF949305000937550210EFE04F95ED
:1023CC008345140037550210EFE04F939305000935
:1023DC0037550210EFE0CF9337550210EFE08F9492
:1023EC0021C537550210EFE0EF931DCD3755021084
:1023FC00EFE04F9315C937550210EFE0AF920DC5C2
:10240C0037550210EFE00F9205C137550210EFE07F
:10241C006F9119C937550210EFE0CF9011C53755A0
:10242C000210EFE02F904DF937550210EFE08F8F2F
:10243C0021C537550210EFE0EF8E1DCD3755021038
:10244C00EFE04F8E15C937550210EFE0AF8D0DC57B
:10245C0037550210EFE00F8D05C137550210EFE034
:10246C006F8C19C937550210EFE0CF8B11C537555A
:10247C000210EFE02F8B4DF9F973938403909305C1
:10248C00C0033755021023109400EFE02F87C1458D
:10249C0037550210EFE0CF87834504003755021003
:1024AC00EFE0CF859305000937550210EFE04F861A
:1024BC008345140037550210EFE04F849305000953
:1024CC0037550210EFE0CF8437550210EFE08F85BF
:1024DC0021C537550210EFE0EF841DCD37550210A2
:1024EC00EFE04F8415C937550210EFE0AF830DC5EF
:1024FC0037550210EFE00F8305C137550210EFE09E
:10250C006F8219C937550210EFE0CF8111C53755CD
:10251C000210EFE02F814DF937550210EFE08F805C
:10252C0021C537550210EFD0FFFF1DCD37550210D6
:10253C00EFD05FFF15C937550210EFD0BFFE0DC5A8
:10254C0037550210EFD01FFE05C137550210EFD0E2
:10255C007FFD19C937550210EFD0DFFC11C5375577
:10256C000210EFD03FFC4DF97D76930606109305D3
:10257C00C003375502102310D400EFD03FF8C145EB
:10258C0037550210EFD0DFF88345040037550210A1
:10259C00EFD0DFF69305000937550210EFD05FF747
:1025AC008345140037550210EFD05FF593050009F1
:1025BC0037550210EFD0DFF537550210EFD09FF6EC
:1025CC0021C537550210EFD0FFF51DCD3755021040
:1025DC00EFD05FF515C937550210EFD0BFF40DC51C
:1025EC0037550210EFD01FF405C137550210EFD04C
:1025FC007FF319C937550210EFD0DFF211C53755EB
:10260C000210EFD03FF24DF937550210EFD09FF189
:10261C0021C537550210EFD0FFF01DCD37550210F4
:10262C00EFD05FF015C937550210EFD0BFEF0DC5D5
:10263C0037550210EFD01FEF05C137550210EFD000
:10264C007FEE19C937550210EFD0DFED11C53755A4
:10265C000210EFD03FED4DF97977130807A09305E1
:10266C00C0033755021023100401EFD03FE9C145D8
:10267C0037550210EFD0DFE98345040037550210BF
:10268C00EFD0DFE79305000937550210EFD05FE874
:10269C008345140037550210EFD05FE6930500090F
:1026AC0037550210EFD0DFE637550210EFD09FE719
:1026BC0021C537550210EFD0FFE61DCD375502105E
:1026CC00EFD05FE615C937550210EFD0BFE50DC549
:1026DC0037550210EFD01FE505C137550210EFD06A
:1026EC007FE419C937550210EFD0DFE311C5375518
:1026FC000210EFD03FE34DF937550210EFD09FE2B7
:10270C0021C537550210EFD0FFE11DCD3755021012
:10271C00EFD05FE115C937550210EFD0BFE00DC502
:10272C0037550210EFD01FE005C137550210EFD01E
:10273C007FDF19C937550210EFD0DFDE11C53755D1
:10274C000210EFD03FDE4DF9856813890820930500
:10275C00C0033755021023102401EFD03FDAC145D6
:10276C0037550210EFD0DFDA8345040037550210DD
:10277C00EFD0DFD89305000937550210EFD05FD9A1
:10278C008345140037550210EFD05FD7930500092D
:10279C0037550210EFD0DFD737550210EFD09FD846
:1027AC0021C537550210EFD0FFD71DCD375502107C
:1027BC00EFD05FD715C937550210EFD0BFD60DC576
:1027CC0037550210EFD01FD605C137550210EFD088
:1027DC007FD519C937550210EFD0DFD411C5375545
:1027EC000210EFD03FD44DF937550210EFD09FD3E4
:1027FC0021C537550210EFD0FFD21DCD3755021031
:10280C00EFD05FD215C937550210EFD0BFD10DC52F
:10281C0037550210EFD01FD105C137550210EFD03C
:10282C007FD019C937550210EFD0DFCF11C53755FE
:10283C000210EFD03FCF4DF9F9799305C00337550E
:10284C000210138A09B023104401EFD03FCBC145CD
:10285C0037550210EFD0DFCB8345040037550210FB
:10286C00EFD0DFC99305000937550210EFD05FCACE
:10287C008345140037550210EFD05FC8930500094B
:10288C0037550210EFD0DFC837550210EFD09FC973
:10289C0021C537550210EFD0FFC81DCD375502109A
:1028AC00EFD05FC815C937550210EFD0BFC70DC5A3
:1028BC0037550210EFD01FC705C137550210EFD0A6
:1028CC007FC619C937550210EFD0DFC511C5375572
:1028DC000210EFD03FC54DF937550210EFD09FC411
:1028EC0021C537550210EFD0FFC31DCD375502104F
:1028FC00EFD05FC315C937550210EFD0BFC20DC55D
:10290C0037550210EFD01FC205C137550210EFD05A
:10291C007FC119C937550210EFD0DFC011C537552B
:10292C000210EFD03FC04DF99305C003375502108C
:10293C00916A23105401EFD07FBCC145375502106A
:10294C00EFD01FBD8345040037550210EFD01FBBDD
:10295C009305000937550210EFD09FBB8345140037
:10296C0037550210EFD09FB9930500093755021067
:10297C00EFD01FBA37550210EFD0DFBA21C537554B
:10298C000210EFD03FBA1DCD37550210EFD09FB9D2
:10299C0015C937550210EFD0FFB80DC537550210C9
:1029AC00EFD05FB805C137550210EFD0BFB719C9CA
:1029BC0037550210EFD01FB711C537550210EFD0A5
:1029CC007FB64DF937550210EFD0DFB521C537551D
:1029DC000210EFD03FB51DCD37550210EFD09FB48C
:1029EC0015C937550210EFD0FFB30DC5375502107E
:1029FC00EFD05FB305C137550210EFD0BFB219C984
:102A0C0037550210EFD01FB211C537550210EFD059
:102A1C007FB14DF9096E9305C00337550210231091
:102A2C00C401EFD0BFADC14537550210EFD05FAE3A
:102A3C008345040037550210EFD05FAC93050009B5
:102A4C0037550210EFD0DFAC834514003755021018
:102A5C00EFD0DFAA9305000937550210EFD05FAB1A
:102A6C0037550210EFD01FAC21C537550210EFD0EF
:102A7C007FAB1DCD37550210EFD0DFAA15C93755E6
:102A8C000210EFD03FAA0DC537550210EFD09FA909
:102A9C0005C137550210EFD0FFA819C937550210E0
:102AAC00EFD05FA811C537550210EFD0BFA74DF975
:102ABC0037550210EFD01FA721C537550210EFD0A4
:102ACC007FA61DCD37550210EFD0DFA515C93755A0
:102ADC000210EFD03FA50DC537550210EFD09FA4C3
:102AEC0005C137550210EFD0FFA319C93755021095
:102AFC00EFD05FA311C537550210EFD0BFA24DF92F
:102B0C00930E00209305C003375502102310D401F7
:102B1C00EFD0DF9EC14537550210EFD07F9F834524
:102B2C00040037550210EFD07F9D930500093755EF
:102B3C000210EFD0FF9D8345140037550210EFD0E3
:102B4C00FF9B9305000937550210EFD07F9C37553A
:102B5C000210EFD03F9D21C537550210EFD09F9C3E
:102B6C001DCD37550210EFD0FF9B15C937550210FC
:102B7C00EFD05F9B0DC537550210EFD0BF9A05C142
:102B8C0037550210EFD01F9A19C937550210EFD0E4
:102B9C007F9911C537550210EFD0DF984DF9375595
:102BAC000210EFD03F9821C537550210EFD09F97F8
:102BBC001DCD37550210EFD0FF9615C937550210B1
:102BCC00EFD05F960DC537550210EFD0BF9505C1FC
:102BDC0037550210EFD01F9519C937550210EFD099
:102BEC007F9411C537550210EFD0DF934DF9657FF7
:102BFC00930F0FD09305C003375502102310F40127
:102C0C00EFD0DF8FC14537550210EFD07F90834551
:102C1C00040037550210EFD07F8E9305000937550D
:102C2C000210EFD0FF8E8345140037550210EFD001
:102C3C00FF8C9305000937550210EFD07F8D375567
:102C4C000210EFD03F8E21C537550210EFD09F8D6B
:102C5C001DCD37550210EFD0FF8C15C9375502101A
:102C6C00EFD05F8C0DC537550210EFD0BF8B05C16F
:102C7C0037550210EFD01F8B19C937550210EFD002
:102C8C007F8A11C537550210EFD0DF894DF93755C2
:102C9C000210EFD03F8921C537550210EFD09F8825
:102CAC001DCD37550210EFD0FF8715C937550210CF
:102CBC00EFD05F870DC537550210EFD0BF8605C129
:102CCC0037550210EFD01F8619C937550210EFD0B7
:102CDC007F8511C537550210EFD0DF844DF985671C
:102CEC00938007409305C00337550210231014003E
:102CFC00EFD0DF80C14537550210EFD07F8183457F
:102D0C00040037550210EFD06FFF930500093755BB
:102D1C000210EFD0EFFF8345140037550210EFD0AF
:102D2C00EFFD9305000937550210EFD06FFE3755B4
:102D3C000210EFD02FFF21C537550210EFD08FFEB8
:102D4C001DCD37550210EFD0EFFD15C937550210C8
:102D5C00EFD04FFD0DC537550210EFD0AFFC05C1BC
:102D6C0037550210EFD00FFC19C937550210EFD0B0
:102D7C006FFB11C537550210EFD0CFFA4DF937550F
:102D8C000210EFD02FFA21C537550210EFD08FF972
:102D9C001DCD37550210EFD0EFF815C9375502107D
:102DAC00EFD04FF80DC537550210EFD0AFF705C176
:102DBC0037550210EFD00FF719C937550210EFD065
:102DCC006FF611C537550210EFD0CFF54DF9E972FA
:102DDC00138302409305C00337550210231064007F
:102DEC00EFD0CFF1C14537550210EFD06FF28345CC
:102DFC00040037550210EFD06FF0930500093755DA
:102E0C000210EFD0EFF08345140037550210EFD0CD
:102E1C00EFEE9305000937550210EFD06FEF3755E1
:102E2C000210EFD02FF021C537550210EFD08FEFE5
:102E3C001DCD37550210EFD0EFEE15C937550210E6
:102E4C00EFD04FEE0DC537550210EFD0AFED05C1E9
:102E5C0037550210EFD00FED19C937550210EFD0CE
:102E6C006FEC11C537550210EFD0CFEB4DF937553C
:102E7C000210EFD02FEB21C537550210EFD08FEA9F
:102E8C001DCD37550210EFD0EFE915C9375502109B
:102E9C00EFD04FE90DC537550210EFD0AFE805C1A3
:102EAC0037550210EFD00FE819C937550210EFD083
:102EBC006FE711C537550210EFD0CFE64DF9E97326
:102ECC00938403609305C0033755021023109400BC
:102EDC00EFD0CFE2C14537550210EFD06FE38345F9
:102EEC00040037550210EFD06FE1930500093755F8
:102EFC000210EFD0EFE18345140037550210EFD0EC
:102F0C00EFDF9305000937550210EFD06FE037550E
:102F1C000210EFD02FE121C537550210EFD08FE012
:102F2C001DCD37550210EFD0EFDF15C93755021004
:102F3C00EFD04FDF0DC537550210EFD0AFDE05C116
:102F4C0037550210EFD00FDE19C937550210EFD0EC
:102F5C006FDD11C537550210EFD0CFDC4DF9375569
:102F6C000210EFD02FDC21C537550210EFD08FDBCC
:102F7C001DCD37550210EFD0EFDA15C937550210B9
:102F8C00EFD04FDA0DC537550210EFD0AFD905C1D0
:102F9C0037550210EFD00FD919C937550210EFD0A1
:102FAC006FD811C537550210EFD0CFD74DF9130993
:102FBC00000B856A93090004130A800B9305C00368
:102FCC003755021023820186A3002401EFD00FD3C2
:102FDC00C14537550210EFD0AFD3834504003755A8
:102FEC000210EFD0AFD19305000937550210EFD086
:102FFC002FD28345140037550210EFD02FD09305F4
:10300C00000937550210EFD0AFD037550210EFD072
:10301C006FD121C537550210EFD0CFD01DCD37550C
:10302C000210EFD02FD015C937550210EFD08FCF2B
:10303C000DC537550210EFD0EFCE05C13755021034
:10304C00EFD04FCE19C937550210EFD0AFCD11C507
:10305C0037550210EFD00FCD4DF937550210EFD088
:10306C006FCC21C537550210EFD0CFCB1DCD3755C6
:10307C000210EFD02FCB15C937550210EFD08FCAE5
:10308C000DC537550210EFD0EFC905C137550210E9
:10309C00EFD04FC919C937550210EFD0AFC811C5C1
:1030AC0037550210EFD00FC84DF99305C0033755B3
:1030BC00021023920186EFD06FC4C1453755021020
:1030CC00EFD00FC58345040037550210EFD00FC366
:1030DC009305000937550210EFD08FC383451400B8
:1030EC0037550210EFD08FC19305000937550210E8
:1030FC00EFD00FC237550210EFD0CFC221C53755D4
:10310C000210EFD02FC21DCD37550210EFD08FC15A
:10311C0015C937550210EFD0EFC00DC53755021049
:10312C00EFD04FC005C137550210EFD0AFBF19C952
:10313C0037550210EFD00FBF11C537550210EFD025
:10314C006FBE4DF937550210EFD0CFBD21C53755A5
:10315C000210EFD02FBD1DCD37550210EFD08FBC14
:10316C0015C937550210EFD0EFBB0DC537550210FE
:10317C00EFD04FBB05C137550210EFD0AFBA19C90C
:10318C0037550210EFD00FBA11C537550210EFD0DA
:10319C006FB94DF99305C003375502102310540134
:1031AC00EFD0CFB5C14537550210EFD06FB6834580
:1031BC00040037550210EFD06FB493050009375552
:1031CC000210EFD0EFB48345140037550210EFD046
:1031DC00EFB29305000937550210EFD06FB3375596
:1031EC000210EFD02FB421C537550210EFD08FB39A
:1031FC001DCD37550210EFD0EFB215C9375502105F
:10320C00EFD04FB20DC537550210EFD0AFB105C19D
:10321C0037550210EFD00FB119C937550210EFD046
:10322C006FB011C537550210EFD0CFAF4DF93755F0
:10323C000210EFD02FAF21C537550210EFD08FAE53
:10324C001DCD37550210EFD0EFAD15C93755021013
:10325C00EFD04FAD0DC537550210EFD0AFAC05C157
:10326C0037550210EFD00FAC19C937550210EFD0FB
:10327C006FAB11C537550210EFD0CFAA4DF993049F
:10328C00000801009305C0033755021023103401C8
:10329C00EFD0CFA6C14537550210EFD06FA78345AD
:1032AC00040037550210EFD06FA593050009375570
:1032BC000210EFD0EFA58345140037550210EFD064
:1032CC00EFA39305000937550210EFD06FA43755C3
:1032DC000210EFD02FA521C537550210EFD08FA4C7
:1032EC001DCD37550210EFD0EFA315C9375502107D
:1032FC00EFD04FA30DC537550210EFD0AFA205C1CB
:10330C0037550210EFD00FA219C937550210EFD064
:10331C006FA111C537550210EFD0CFA04DF937551D
:10332C000210EFD02FA021C537550210EFD08F9F80
:10333C001DCD37550210EFD0EF9E15C93755021031
:10334C00EFD04F9E0DC537550210EFD0AF9D05C184
:10335C0037550210EFD00F9D19C937550210EFD019
:10336C006F9C11C537550210EFD0CF9B4DF91385CB
:10337C00F4FF9374F50FE39704F09305190013F918
:10338C00F50FE31D49C36D76930606F09305C00354
:10339C00375502102310D400EFD04F96C145375546
:1033AC000210EFD0EF968345040037550210EFD092
:1033BC00EF949305000937550210EFD06F958345B4
:1033CC00140037550210EFD06F9393050009375551
:1033DC000210EFD0EF9337550210EFD0AF9421C508
:1033EC0037550210EFD00F941DCD37550210EFD08A
:1033FC006F9315C937550210EFD0CF920DC53755C5
:10340C000210EFD02F9205C137550210EFD08F91DB
:10341C0019C937550210EFD0EF9011C5375502106E
:10342C00EFD04F904DF937550210EFD0AF8F21C52B
:10343C0037550210EFD00F8F1DCD37550210EFD03E
:10344C006F8E15C937550210EFD0CF8D0DC537557E
:10345C000210EFD02F8D05C137550210EFD08F8C95
:10346C0019C937550210EFD0EF8B11C53755021023
:10347C00EFD04F8B4DF96977130807609305C003A4
:10348C003755021023100401EFD04F87C145375533
:10349C000210EFD0EF878345040037550210EFD0B0
:1034AC00EF859305000937550210EFD06F868345E1
:1034BC00140037550210EFD06F849305000937556F
:1034CC000210EFD0EF8437550210EFD0AF8521C535
:1034DC0037550210EFD00F851DCD37550210EFD0A8
:1034EC006F8415C937550210EFD0CF830DC53755F2
:1034FC000210EFD02F8305C137550210EFD08F8209
:10350C0019C937550210EFD0EF8111C5375502108C
:10351C00EFD04F814DF937550210EFD0AF8021C558
:10352C0037550210EFD00F801DCD37550210EFC06C
:10353C007FFF15C937550210EFC0DFFE0DC537559B
:10354C000210EFC03FFE05C137550210EFC09FFDC2
:10355C0019C937550210EFC0FFFC11C537550210C1
:10356C00EFC05FFC4DF9F578138E08809305C0030E
:10357C00375502102310C401EFC05FF8C145375511
:10358C000210EFC0FFF88345040037550210EFC05E
:10359C00FFF69305000937550210EFC07FF78345FE
:1035AC00140037550210EFC07FF59305000937550D
:1035BC000210EFC0FFF537550210EFC0BFF621C562
:1035CC0037550210EFC01FF61DCD37550210EFC056
:1035DC007FF515C937550210EFC0DFF40DC537550F
:1035EC000210EFC03FF405C137550210EFC09FF336
:1035FC0019C937550210EFC0FFF211C5375502102B
:10360C00EFC05FF24DF937550210EFC0BFF121C585
:10361C0037550210EFC01FF11DCD37550210EFC00A
:10362C007FF015C937550210EFC0DFEF0DC53755C8
:10363C000210EFC03FEF05C137550210EFC09FEEEF
:10364C0019C937550210EFC0FFED11C537550210DF
:10365C00EFC05FED4DF9E97E138F0E109305C0039B
:10366C00375502102310E401EFC05FE9C14537550F
:10367C000210EFC0FFE98345040037550210EFC07C
:10368C00FFE79305000937550210EFC07FE883452B
:10369C00140037550210EFC07FE69305000937552B
:1036AC000210EFC0FFE637550210EFC0BFE721C58F
:1036BC0037550210EFC01FE71DCD37550210EFC074
:1036CC007FE615C937550210EFC0DFE50DC537553C
:1036DC000210EFC03FE505C137550210EFC09FE463
:1036EC0019C937550210EFC0FFE311C53755021049
:1036FC00EFC05FE34DF937550210EFC0BFE221C5B3
:10370C0037550210EFC01FE21DCD37550210EFC028
:10371C007FE115C937550210EFC0DFE00DC53755F5
:10372C000210EFC03FE005C137550210EFC09FDF1C
:10373C0019C937550210EFC0FFDE11C537550210FD
:10374C00EFC05FDE4DF9F2406244D2444249B249C7
:10375C00224A924A056182800000AA88AE8732888C
:10376C003685468363960620976600009386C6A22C
:10377C0063FFC50A41676375E60A1307F00F333719
:10378C00C7000E073355E600AA9683C6060013053C
:10379C0000023697B306E540630BE500B395D700FE
:1037AC0033D7E8003318D600D98D3393D80093580B
:1037BC000801B3D615031316080141829357030170
:1037CC0033F715033685B305D6024207D98F63FC50
:1037DC00B700C2971385F6FF63E7070163F5B700DF
:1037EC001385E6FFC2978D8F33F7170342031353EC
:1037FC000301B3D71703420733636700B306F6021E
:10380C003E86637BD30042931386F7FF6366030106
:10381C006374D3001386E7FF4205518D81455DA883
:10382C00370500014147E36FA6F46147A1BF01E6EC
:10383C0005473358C7024167637FE8081307F00F49
:10384C006373070121453357A800BA9603C70600D6
:10385C00130600022A97B306E6406315E608B38701
:10386C0007418545935808011316080141821357E7
:10387C000301B3F61703B3D71703C206558F330EE4
:10388C00F6023E85637CC70142971385F7FF636799
:10389C0007016375C7011385E7FF42973307C741DB
:1038AC00B377170342031353030133571703C207AC
:1038BC0033E36700B306E6023A86637BD300429398
:1038CC001306F7FF636603016374D3001306E7FF67
:1038DC004205518D8280370700014145E365E8F6CA
:1038EC00614595B73318D80033D5E7003393D8002A
:1038FC00B397D70033D7E800935808013366F70025
:10390C003377150393170801C1839355060133557B
:10391C00150342074D8FB386A702AA85637CD70097
:10392C0042979305F5FF636707016375D70093050D
:10393C00E5FF4297B306D74033F7160342064182A0
:10394C00B3D6160342073385D702B367C700368751
:10395C0063FCA700C2971387F6FF63E7070163F5C3
:10396C00A7001387E6FFC297C205898FD98DDDBDED
:10397C0063E2D514416763FFE6021307F00FB3351A
:10398C00D7008E0533D5B600176700001307C78024
:10399C002A9703470700130500022E97B305E5404D
:1039AC006311E5020545E3E7F6F233B5C8001345AC
:1039BC0015000DB737070001C145E3E5E6FCE1450D
:1039CC00D1B73358E600B396B6003368D80033D37A
:1039DC00E700935E0801B376D303B397B70033D7F0
:1039EC00E800331EB6003366F70093170801C18355
:1039FC00135706013353D303C206558F338F670217
:103A0C001A85637CE70142971305F3FF636707018F
:103A1C006375E7011305E3FF42973307E741B3767C
:103A2C00D7033357D703C2063383E7029317060134
:103A3C00C183D58F3A8663FC6700C2971306F7FFE4
:103A4C0063E7070163F567001306E7FFC2974205BA
:103A5C00C16E518D9386FEFF13560E01135805014E
:103A6C00B38767403373D500B376DE00330ED302D1
:103A7C00B306D80213570E013303C30236931A97B9
:103A8C003308C8026373D7007698935607013698AB
:103A9C0063E00703E39407D9C167FD177D8F4207E5
:103AAC00337EFE00B398B80072978145E3F4E8E2E8
:103ABC007D15ADB38145014531BDAA8581460146D1
:103ACC0001456F001059411122C426C21764000031
:103ADC001304C4C797640000938444C7058C06C6BE
:103AEC00098411E4B24022449244410182807D1445
:103AFC0093172400A6979C438297E5B7411122C4E3
:103B0C0026C217640000130464C4976400009384F5
:103B1C00E4C3818C4AC006C68984014963159902A5
:103B2C0017640000130484C297640000938404C2D9
:103B3C00818C89840149631D9900B24022449244CE
:103B4C000249410182801C40050911048297F9B792
:103B5C001C40050911048297F9BF797122D44AD00F
:103B6C0052CC56CA5AC806D626D24ECE3A8B2E8A7C
:103B7C0032843689C28A01476358060037070080B1
:103B8C003344C7001307D0022380E70093F4F8FDF9
:103B9C00930760048D466388F400930750048946AC
:103BAC006393F4000509D6879308C10013088100BC
:103BBC004A87D2852286EF00D06393077004AA89C6
:103BCC006395F40013761B0029CA93076004338BAA
:103BDC0029016397F40203C7090093070003631ECE
:103BEC00F700014681465285A285EF30B04C11C5D5
:103BFC000546B306264123A0DA0083A70A003E9BA4
:103C0C00014681465285A285EF30D04A11E15AC651
:103C1C0013070003B24763E26703B2474257B2503F
:103C2C002254B38737411CC392540259624AD24A78
:103C3C00424B4E85F249456182809386170036C609
:103C4C002380E700C1BF2300C5009307250013079D
:103C5C00B00263D60500B305B0401307D002A30031
:103C6C00E50025476352B70641111307F1003A8866
:103C7C00A9481303300633E61503BA867D171306DD
:103C8C000603A38FC6FE2E86B3C51503E345C3FEFC
:103C9C009388E6FF93850503A30FB7FE3E86468700
:103CAC00636D070101476365180113071101158F37
:103CBC00BA973385A74041018280834507000507E9
:103CCC000506A30FB6FEE9BF930700032301F50019
:103CDC009385050393074500A301B5003385A740E1
:103CEC008280197186DEA2DCA6DA2E84CAD8CED6E2
:103CFC00D2D4D6D23A8ADAD0DECEE2CC3289B689A8
:103D0C00E6CAEAC8EEC6AA84EF107051032C05006F
:103D1C006285EF005015032B040002DC834A8401FA
:103D2C0013770B1083270A00AA8B79CB13874700D4
:103D3C002320EA009C43081098433AD0D8433AD247
:103D4C0098473AD4DC473ED6EF40F00C28C46CC4FC
:103D5C00032AC40417C7FF0F13070748832C8404D6
:103D6C00032D0700832D470093171A0085836A865D
:103D7C00EE866685BE853ECEEF40C07449EDF247B7
:103D8C006A86EE866685BE85EF30D0436355A00803
:103D9C00014681466685D285EF30D04263560500D8
:103DAC009307D002A301F40493077004175A000080
:103DBC00130A8A4E63F65701175A0000130A0A4E6B
:103DCC00137BBBFF8D47232064011CC8014B4E871E
:103DDC00CA867018A2852685CD26FD5C63159517BD
:103DEC007D55F6506654D6544659B659265A965AAD
:103DFC00065BF64B664CD64C464DB64D096182803F
:103E0C009D07E19B138787002320EA009843DC433E
:103E1C0038C47CC435BF6686D2866685D285EF40B1
:103E2C00606A05C563560A009307D002A301F40427
:103E3C0093077004175A0000130A8A46E3F257F9E5
:103E4C00175A0000130A0A46A5BF5C407D5713FDA4
:103E5C00FA0D6395E70899475CC0544013670B4013
:103E6C003C183EC0528693073103E68518C002C247
:103E7C00D688130841032685EFF03FCE93077004D4
:103E8C00D2552A8A631BFD00F55763C5F5005C40CB
:103E9C0063D8B708F91A93FAFA0F9307500663E63A
:103EAC005705FD155686130504052EDAEFF0BFD91C
:103EBC00625785462A8BB307A7001CC863C5E6006A
:103ECC001840058B19C385071CC883473103E38051
:103EDC0007F09307D002A301F404D5BD13077004B7
:103EEC00E31DEDF6BDFB854785BF93076006639B1D
:103EFC00FA025C40635BB0000CC881E71840058B8C
:103F0C0009CF8507AE971CC809A889E718408546D4
:103F1C00058B19C39386270014C82CCC014B75B79D
:103F2C00930A7006E25763C9F5001C400CC8858BD8
:103F3C00EDD793871500C1BF05476344B00009470F
:103F4C000D8FBA97C9B71C4013F7074015E31448F7
:103F5C005286CA8526858299E30495E91C40898B93
:103F6C0063980724F2574844E35DF5E63E8595BD1A
:103F7C0013075006637D571928446C44014681464B
:103F8C00EF30501339E98546175600001306C63139
:103F9C00CA8526858299E30595E55257E257634514
:103FAC00F7001C40858BDDDBDE866286CA852685A4
:103FBC008299FD57E306F5E2014A930AA4017D5B61
:103FCC00E257FD17E35CFAF885465686CA852685C6
:103FDC008299E30765E1050AE5B7D2576346F00617
:103FEC008546175600001306262CCA85268582990D
:103FFC00E30895DFD2576257D98F81E71C40858B38
:10400C00B1DFDE866286CA8526858299FD57E30973
:10401C00F5DC814A130BA401FD5BD257B307F040CA
:10402C0063CBFA00E2565286CA8526858299FD57E3
:10403C00E316F5F275B385465A86CA8526858299AC
:10404C00E30075DB850AD1BF3C4CE25A63D35701C0
:10405C00BE8A63495007014B130DA401FD5D832CEF
:10406C008405D68763D30A008147B387FC40634439
:10407C00FB065257E2576349F7061C40858BADE7A8
:10408C00E25A5257B3879A41B38AEA4063D3570135
:10409C00BE8A63445007014A130BA401FD5B5257BF
:1040AC00E257998F568763D30A000147998FE357DC
:1040BC00FAEA85465A86CA8526858299E30275D323
:1040CC00050AF1BFD6865286CA8526858299FD5788
:1040DC00E313F5F831B385466A86CA85268582993D
:1040EC00E300B5D1050BA5BFDE866286CA852685A1
:1040FC008299FD57E316F5F8E5B1D68633069A0199
:10410C00CA8526858299FD57E317F5F8D1B9E25691
:10411C0005476344D700858BB5C785465286CA854B
:10412C0026858299FD5AE30D55CBDE866286CA85BB
:10413C0026858299E30655CB28446C44014681467A
:10414C00EF3040771DC9E25613061A00CA85FD16DA
:10415C0026858299E30655C9DA8613060405E9B566
:10416C0085465686CA8526858299E30B75C7050A4E
:10417C00E257FD17E346FAFEC5B7014A930AA401BC
:10418C00FD5BFDB785465286CA8526858299E31567
:10419C0095FDB9B185465686CA8526858299E30177
:1041AC0065C5050A5C447257998FE345FAFE5DBB01
:1041BC00014A930A94017D5BF5B7797152CC9C4905
:1041CC003A8A984522D426D24ECE56CA06D64AD022
:1041DC005AC85EC6AA892E84B284B68A63D3E70015
:1041EC00BA879CC00347340419C385079CC01C4084
:1041FC0093F7070281C79C4089079CC003290400E0
:10420C0013796900631A0900130B9401FD5B5C447C
:10421C009840998F634CF90483473404B336F0000B
:10422C001C4093F70702A5EB13063404D6854E8584
:10423C00029AFD576303F5041C4011469840998B74
:10424C00544481446397C700B384E64063D30400AD
:10425C0081441C4418486354F700998FBE9401495B
:10426C0069047D5B63982405014509A885465A8637
:10427C00D6854E85029A631E75017D55B250225427
:10428C0092540259F249624AD24A424BB24B4561AE
:10429C0082800509ADBF3307D40013060003A301C8
:1042AC00C7040347540493871600A2978906A38179
:1042BC00E7049DBF85462286D6854E85029AE30E7D
:1042CC0065FB050945B7797122D426D24AD04ECE6A
:1042DC0006D652CC56CA5AC803C885019307800724
:1042EC00AA842E843289B68963EE070193072006CF
:1042FC009386350463ED07016306081C930780055C
:10430C00630BF812930A24042301040515A89307E0
:10431C00D8F993F7F70F5546E366F6FE17560000EB
:10432C00130646FB8A07B2979C43B29782871C43BD
:10433C00938A2504938647009C4314C32381F50478
:10434C0085476DA29C41084313F607089305450069
:10435C000DC21C410CC363D807001307D002B3076E
:10436C00F040A301E40417560000130626F4294874
:10437C00A1A013F607041C410CC371DEC207C18750
:10438C00D9BF90411C43137506089385470001C59E
:10439C000CC39C4339A0137606040CC37DDA83D777
:1043AC0007001307F00617560000130626F06305E6
:1043BC00E80E2948A3010404584018C463450700BB
:1043CC000C40ED990CC099E3B68A19CFB68A33F735
:1043DC000703FD1A3297034707002380EA003E8744
:1043EC00B3D70703E37507FFA147631EF8001C4012
:1043FC00858B91CB58401C4863C7E700930700039B
:10440C00A38FFAFEFD1AB386564114C84E87CA868E
:10441C007000A2852685EFF05FDA7D5A631C450D8E
:10442C007D55B250225492540259F249624AD24AF2
:10443C00424B45618280A382050517560000130686
:10444C00E6E60C40084313F805081C411105630D02
:10445C00080208C313F7150001C793E505020CC049
:10446C004148A9FB18401377F7FD18C0A1B79C4130
:10447C0093E707029CC193078007A302F404175625
:10448C0000001306E6E375BF13F8050408C3E30345
:10449C0008FCC207C1837DBF214829BF90411C4342
:1044AC00CC4913780608138547006306080008C337
:1044BC009C438CC301A808C3137606049C4375DA8D
:1044CC002390B70023280400B68A89B71C43D04137
:1044DC0081459386470014C383AA07005685EF10C5
:1044EC00606501C53305554148C05C401CC8A3013B
:1044FC00040429BF14485686CA8526858299E3018F
:10450C0045F31C40898B8DE7B2474844E35BF5F0DB
:10451C003E8501BF85465686CA8526858299E3016C
:10452C0065F1050A5C443247998FE345FAFEE9BF11
:10453C00014A930A94017D5BF5B75D7122D406D6CE
:10454C002A842EDA32DC36DEBAC0BEC2C2C4C6C67B
:10455C0017C5FF0F0325C5C719C51C4D89E72AC60A
:10456C00EF10C03432450C455418228636CEEF205D
:10457C00E020B250225461618280011126CA4AC8DF
:10458C0006CE22CC4EC652C4AA842E8909C51C4D17
:10459C0099E3EF10A0319C4C804481E72685EF1005
:1045AC00E03097570000938767E3631CF402C04028
:1045BC008357C400A18BB1C71C48A1C7FD59294A18
:1045CC001C4483450900FD17B1E91CC463DE0706D2
:1045DC002286A94526855D20FD576308F5022945ED
:1045EC0035A097570000938767E16314F40080446B
:1045FC00C1B797570000938767DCE31BF4FAC044FC
:10460C0045BFA2852685352A55D97D55F240624491
:10461C00D2444249B249224A056182801CC4050930
:10462C0063D70700184C63CBE700638945011C4036
:10463C001387170018C02380B70059B72286268528
:10464C003528E31F35F7D1B71C401387170018C066
:10465C0029472380E70061B7AA8517C5FF0F0325FB
:10466C0025B76FF09FF1AA8703C7070085076DFF79
:10467C003385A7407D1582806FB01FAE011122CC0F
:10468C0026CA4AC806CE4EC6AA842E89328409C5CB
:10469C001C4D99E3EF10802197570000938707D4A6
:1046AC00631BF406C0401C4C1CC48357C400A18B74
:1046BC00D9C31C48C9C31C4808409379F90F137916
:1046CC00F90F1D8D5C486347F500A2852685EF1018
:1046DC00000C35E51C440505FD171CC41C40138754
:1046EC00170018C0238037015C486389A7008357E3
:1046FC00C400858B89CBA9476317F900A285268551
:10470C00EF10E0080DEDF2406244D244B2494A8504
:10471C0042490561828097570000938727CE631426
:10472C00F400804449B797570000938727C9E31CCE
:10473C00F4F6C0448DBFA285268521202DDD7D5940
:10474C00D9B7411122C426C24AC006C697C4FF0F6E
:10475C0083A404A82A892E8491C49C4C81E72685C5
:10476C00EF10C01497570000938747C76317F402E4
:10477C00C0408317C4001397070193F68700418349
:10478C00B5EA9376070195EA25472320E90093E7DC
:10479C0007042316F4007D5545A097570000938716
:1047AC00E7C56314F4008044E9B79757000093877A
:1047BC00E7C0E310F4FCC0446DBF118B15C74C5817
:1047CC0091C9930744046385F5004A85EF10505D49
:1047DC00232A04028357C4002322040093F7B7FD55
:1047EC002316F4001C481CC08357C40093E78700B1
:1047FC002316F4001C4889EF8357C40013070020CC
:10480C0093F707286386E700A2854A85EF10802777
:10481C008317C4001397070193F6170041839DC2B9
:10482C00544823240400B306D04014CC144801454A
:10483C0081E61377070821FFB240224492440249D3
:10484C004101828093762700014691E2504810C4C2
:10485C00F1BFAA881385C1861C4181EF1387019192
:10486C0018C113050000BA8709C51C412324F70899
:10487C00BA87D8437D487D556346E804638D0802AA
:10488C0003A887086300080413152700429510C17C
:10489C000323081005463316E6003363C3002320B8
:1048AC0068102320D50889466397D80083264810C2
:1048BC00558E2322C810930617000A07D4C3BA9743
:1048CC008CC701458280011122CC1C49804906CE3F
:1048DC0026CA4AC84EC652C456C263CA87107D1433
:1048EC0013162400138A4501B30ACA009309450123
:1048FC0083A70A004E96184285072A89B354F702FB
:10490C006362F70641655288CE880143014E7D15DE
:10491C008326080091081108B3F7A600C182B3875B
:10492C009702B38696029A9713D70701E98FB307BC
:10493C00FE40BA9603A7C8FF13D30601E98E337E57
:10494C00A700F2974183158F93D607413697135ED4
:10495C000741E98F4207D98F23AEF8FEE3FA0AFB31
:10496C001C42BDC74A85EF10301863460504C1666A
:10497C0085044E868145FD1603250A001C4211064E
:10498C003377D500998D33F7D7002E97C1834181AA
:10499C0093550741898FAE9793D50741758FC20701
:1049AC00D98F110A232EF6FEE3F84AFD9317240043
:1049BC00CE9798431DC72685F2406244D2444249A3
:1049CC00B249224A924A056182801C4289E77D14D1
:1049DC007116E3ECC9FE2328890069B7984309E7EF
:1049EC007D14F117E3ECF9FE23288900E9B70145A2
:1049FC00E1B735713EDC5C5122CD26CB4AC94EC79E
:104A0C0056C35AC106CF52C5DEDEE2DCE6DAEAD87E
:104A1C00EED636CA3AD046D2AA84AE8A32844289BD
:104A2C00AE89328B9DEB4145EF10E00FC8D011EDF4
:104A3C00975600009386869001469305A00E175555
:104A4C00000013052591EF20400E2322050023249E
:104A5C0005002320050023260500DC508C4389CD5E
:104A6C00D84385472685B397E7009CC5D8C1EF107E
:104A7C002031DC5023A00700635204048547060450
:104A8C002320F900135B1400B707F07F3377FB008A
:104A9C006314F70662578967320B9387F770135BC1
:104AAC00CB001CC3B36A5B01E3820A34925791EBCF
:104ABC0097570000938747883EC639A823200900E2
:104ACC00E1B797570000938727873EC6975700009A
:104ADC009387B78612571CC3FA406A443245DA44AE
:104AEC004A49BA492A4A9A4A0A4BF65B665CD65C32
:104AFC00465DB65D0D618280014681465685DA853C
:104B0C0056D65AD8EF20105B05E1625785471CC377
:104B1C0097470000938747793EC69257D5DF974752
:104B2C000000938777787DB7B808F4085A86D68545
:104B3C00268513594B01EF1070141379F97F664ACF
:104B4C002A8463060912C2573255130919C093956A
:104B5C00C700B181B707F03FDD8D82C097B7FF0F5B
:104B6C00938707689043D443EF30403497B7FF0FD7
:104B7C00938787679043D443EF20306F97B7FF0F2D
:104B8C00938707679043D443EF20201EAA8B4A8556
:104B9C00AE8AEF30101D97B7FF0F9387E7659043F0
:104BAC00D443EF20906C2A86AE865E85D685EF20A6
:104BBC00C01BAA8BAE8AEF309014AA8D0146814699
:104BCC005E85D685EF201060635B05006E85EF3047
:104BDC0050195E86D686EF20F04D11C1FD1D05479C
:104BEC00D9473ADA63E3B70313973D0097570000B0
:104BFC009387878ABA979043D4433255C255EF2096
:104C0C00705C63530500FD1D02DA33092A41130C55
:104C1C00F9FF814B63560C00854BB38B2B41014C38
:104C2C0063C80D086E9C6ED4814C5247A54763E552
:104C3C00E70E9547054963D6E7009307C7FF3ECAC1
:104C4C00014952479147630BF7069547630AF70AE8
:104C5C0089476305F70A8D4702CE6305F70A854736
:104C6C003ECEFD573EC87D5DC94702D095A0764922
:104C7C009307000252999305294363D6B702130593
:104C8C0000040D8D930529413315AB00B3DABA003E
:104C9C0033655501EF305013B70710FEBE958547AD
:104CAC007D19BEC065BD3385B7403395AA00DDB70D
:104CBC00B38BBB41B30CB04102D485BF85473ECE0C
:104CCC008257634EF004854705473EC8054D3AD0E0
:104CDC00D450114723A2060013064701CC4263F4BB
:104CEC00C7042685EF00F07E2AC631E19746000006
:104CFC009386866B01469305A01A91B302CEC9B771
:104D0C0085473ECE8257EE973EC8138D1700EA8733
:104D1C00E340A0FD85476DBF054902CA89B782579C
:104D2C003EC83E8D75B78505CCC2060775B7DC50FD
:104D3C00324798C3B94763E8A71363060912635A4D
:104D4C00B01B13F7FD00931737001747000013072C
:104D5C00A7743E9713D94D401C43832A4700137701
:104D6C000901094A15C31747000013076770105350
:104D7C0054533255C2553ECC1379F900EF20805F65
:104D8C00E247AA892E8B0D4A174700001307476E7E
:104D9C00631F09124E853E86D686DA85EF20805D2C
:104DAC00AA892E8BD257638B071A97B7FF0F93875D
:104DBC0027459043D4434E85DA85EF20B040635F9E
:104DCC00051863000D1AC247635DF0089387FDFF59
:104DDC003ECC97B7FF0F938727439043D4434E8520
:104DEC00DA85EF2090484248AA892E8B050A528515
:104DFC00C2C45ADECEC2EF30C076DA864E86EF20C1
:104E0C00D04697B6FF0F9386A6409042D4425A895B
:104E1C00CE8AEF1090752648B708C0FC2A8B338ACF
:104E2C00B8006313081497B6FF0F9386E63E9042C2
:104E3C00D4424E85CA85EF3060075A86D286AA893D
:104E4C002E89EF20D02D634BA05AB7070080B3C733
:104E5C0047015A86BE864E85CA85EF20B036634C14
:104E6C000558B259425BF64763C807363947634564
:104E7C00B73713973D00974700009387E761BA97C0
:104E8C0003AA070083AA4700825763D10726634F02
:104E9C00A02563120D5697B7FF0F9387E737904302
:104EAC00D4435285D685EF20503C4E86DA86EF20CF
:104EBC001027014A014963580550B2473247850D06
:104ECC0093891700930710032300F70009A3937627
:104EDC00190081CE104354433E85D6853ACCEF2041
:104EEC00D0386247050AAA87AE8A135919402107A0
:104EFC0045B5094AE3880DEA3309B0419377F900C7
:104F0C00139737009747000093870759BA97904338
:104F1C00D4433255C25513594940974A0000938ADD
:104F2C002A55EF209034AA87AA892E8B0147631645
:104F3C000900E30907E6BE89ADB59376190099CA55
:104F4C0003A60A0083A64A003E85050AEF20F0312D
:104F5C00AA87054713591940A10AD1BF6ECC6A889C
:104F6C0079B56ECC014861B59307F8FF13973700FC
:104F7C009747000093874752BA979043D443B24760
:104F8C00C2973EDEF247C5CB97B7FF0F93874729F1
:104F9C00CC43AAC28843EF20E03D5A86D286EF204C
:104FAC00F070B2492A8A2E8BCA855685EF3020556F
:104FBC00AAC2EF30005B2A86AE865685CA85EF20E2
:104FCC00F06E96478509528693870703A38FF9FEE7
:104FDC00DA862A89AE8AEF20F01E634C050E97B74D
:104FEC00FF0F9387E7218843CC434A86D686EF2070
:104FFC00F06B5286DA86EF20F01C63470518F257E7
:10500C00E381F9E697B7FF0F938707209043D443CA
:10501C005285DA85EF20702597B7FF0F9387C71E4F
:10502C009043D4432A8A2E8B4A85D685EF20F023D1
:10503C00AA8A2E8995BFD285EF203023F257B24928
:10504C00AAC42E8BBEC2CA855685EF30404BAAC669
:10505C00EF3020512A86AE865685CA85EF20106522
:10506C00B64785092A8A93870703A38FF9FEF2575F
:10507C002E896392F90697BAFF0F938A6A1A03A6D0
:10508C000A0083A64A002645DA85EF10104E2A86C0
:10509C00AE865285CA85EF2090086347A00E26463F
:1050AC0003A50A0083A54A00DA86EF2030602A8621
:1050BC00AE865285CA85EF20F010E35405DA9307CB
:1050CC00000396491387F9FFBAC203C7F9FFE30A35
:1050DC00F7FEE24D49A897B7FF0F9387E71290436D
:1050EC00D443EF209018AA8A2E89B1BFB2475A8CAC
:1050FC00CE8C138B17003E9D97BBFF0F938BCB1061
:10510C005286D6866685E285EF20C026EF30203F9A
:10511C002A89EF3000455286D686EF201015AE86D0
:10512C002A86E2856685EF20705893060903A30F43
:10513C00DBFEDA8963136D092A86AE86EF10F04226
:10514C005286D686AA8B2E8BEF20607D634DA002F3
:10515C005286D6865E85DA85EF20C07509E513790F
:10516C001900631209022685A285EF007041E257EF
:10517C002380090013851D0088C39257E38E079482
:10518C0023A0370191BA6ECCCE8713079003BE894A
:10519C0083C6F7FFFD17639CE600B246E399F6FE63
:1051AC00624705073ACC130700032380E60003C7C8
:1051BC00070005072380E70029BF03A60B0083A681
:1051CC004B00050BEF20700A01468146AA8C2E8CF1
:1051DC00EF20406E15F541BF724763000710D246B1
:1051EC0005476345D70C06479387374309E766475E
:1051FC0093076003998F668ADE8A85452685BE9B58
:10520C003E9CEF0010552A89635E5001635C80015F
:10521C00D68763535C01E287B38BFB40B38AFA40B9
:10522C00330CFC4063810C04F247C5CF635440033C
:10523C00CA8552862685EF00506D2286AA852A895A
:10524C002685EF0090542ACCA2852685EF0050339A
:10525C00E2473E8433864C4163874C01A285268508
:10526C00EF00B06A2A8485452685EF00904EA25740
:10527C002A8A635AF0063E86AA852685EF00F068D6
:10528C00524785472A8A814C63C7E706814C639154
:10529C0009069317CB00A9EFB705F07F337BBB0052
:1052AC0063080B04850B050C854C99A0130AFDFFB4
:1052BC0063CA4C01338A4C41635E0D00B38AAB4127
:1052CC00814725BFA257B30C9A41E6973ED4D28CA6
:1052DC00014ADDB7DE8AEA870DB7668ADE8A0149A4
:1052EC0025B76686A5BF52478547814CE3D0E7FAC0
:1052FC00A257054589CF83270A018D078A07D297C4
:10530C00C843EF00103A930700023385A74062951B
:10531C007D8951C193070002898F1147635AF706A3
:10532C00F1473385A740AA9BAA9A2A9C635870011F
:10533C00A2855E862685EF00F06A2A846358800178
:10534C00D28562862685EF00F0692A8AD257B1C7CA
:10535C00D2852285EF00507963510504A2858146E0
:10536C0029462685EF00F027F247FD1D2A84638D20
:10537C000728CA85814629462685EF009026C24714
:10538C002A896345F0085247894763CFE700BDA8D7
:10539C00E38EE7F83E85710579B76345A007524760
:1053AC00894763D1E7066AC8C24791EFD285814627
:1053BC0015462685EF00F0222A8AAA852285EF0061
:1053CC00B072E34CA0AE8257B24993CDF7FF014BBC
:1053DC00D2852685EF00D01AE30709D863080B00A5
:1053EC0063062B01DA852685EF009019CA85268580
:1053FC00EF0010198DBB014A0149F1B7E24D014A8A
:10540C00014965BCF2476AC863870720635850019D
:10541C00CA8556862685EF00F05C2A894A8563800A
:10542C000C04832549002685EF00B00AAA8A11E9ED
:10543C0097460000938646F701469305A02E6FF021
:10544C000FE0032609019305C900310509060A0678
:10545C00EF00E06F0546D6852685EF00B058B247C1
:10546C0042474A8B138C1700BA973ECC93F719001E
:10547C002A893EC8D2852285EFF0EFC4DA85AA8C42
:10548C00930A05032285EF003066D285AA8B4A86E3
:10549C002685EF00D0685445130DFCFFAA850547FF
:1054AC0099E62ACE2285EF003064F2452A872685BC
:1054BC003ACEEF00F00CD2477247E289B3E6E70030
:1054CC00C247DD8E81EE130790036388EA046354B0
:1054DC007001938A1C0323005D01DDBD63CA0B00C0
:1054EC00D247B3EB7701C247B3EBFB0063980B04D5
:1054FC00E353E0FEA28505462685EF00B04ED2852B
:10550C002A84EF00705E6346A00071F513F71A0051
:10551C0079D313079003E39EEAFA930790032300D1
:10552C00FD00CE8793069003BE8903C7F9FFFD17D4
:10553C006305D70A05072380E70059BD635BE000CC
:10554C0013079003E38BEAFC93871A002300FD00FA
:10555C0041B5E247A30F5CFF63888705A2858146AE
:10556C0029462685EF00F0072A8481462946DA85EC
:10557C00268563182B01EF00D0062A8B2A89050C8F
:10558C00D5BDEF001006CA852A8B81462946268593
:10559C00EF0030052A89E5B7C24785496353F0000F
:1055AC00BE89B247014BBE99A28505462685EF0000
:1055BC007043D2852A84EF003053E344A0F601E512
:1055CC0093F71A00B9FFCE8713070003BE8983C671
:1055DC00F7FFFD17E38CE6FEE5BB3247E316F7F465
:1055EC0093071003850D2300F700DDB3125797477F
:1055FC0000009387A7D33EC697470000938787D3B5
:10560C00631A07CC6FF04FCDC2476346F000524788
:10561C008947E3CBE7D88149D2852285EFF0AFAA41
:10562C00B247930A050333873701C247230057015A
:10563C008509E3D3F9F6A285814629462685EF0034
:10564C00407A2A84D1BF83D7C500011122CC26CA47
:10565C0006CE4AC84EC613F78700AA842E847DE373
:10566C00D8416347E000B8416344E00001457DA8A0
:10567C0058546DDF856603A90400F58F23A0040040
:10568C00ADCF68488357C400918B99C75C401D8D82
:10569C005C5899C33C401D8D5C540C502A86814645
:1056AC0026858297FD570357C400631DF50094406F
:1056BC00F54763E4D708B70740208507B3D7D70071
:1056CC00858BA5CF1C48232204001CC085677D8FC9
:1056DC0019C7FD576314F5009C4091E368C84C58FA
:1056EC0023A02401C1D5930744046385F5002685C6
:1056FC00EF00106B232A040295BF0C50854601461F
:10570C0026850297FD57E31FF5F69C40A5DF7547EC
:10571C006385E70059476395E70023A02401B9B7D7
:10572C008357C40093E707042316F400F240624445
:10573C00D2444249B249056182801367070423169B
:10574C00E400EDB783A90501E38209F203A9050082
:10575C008D8B23A0350133093941014791E3D84999
:10576C0018C4E35520F11C540C50CA864E8626856D
:10577C008297634AA0008357C4007D5593E70704C2
:10578C002316F40065B7AA993309A940D9BF9C49DF
:10579C00A5C3011122CC06CE2A8411C51C4D81E76C
:1057AC002EC62922B24597470000938727C3639CD6
:1057BC00F5004C408397C5009DC722856244F2409A
:1057CC0005616FF05FE897470000938727C36394E8
:1057DC00F5000C44C5B797470000938727BEE39BA1
:1057EC00F5FC4C44C1BFF240624401450561828026
:1057FC0001458280411122C406C62A842316B500B5
:10580C002317C500232005002322050023240500AF
:10581C002322050623280500232A0500232C050036
:10582C00214681451305C50509219717000093876B
:10583C00A7215CD097170000938707241CD49717D7
:10584C000000938747285CD4971700009387072B99
:10585C00B24000D01CD82244410182809705000040
:10586C00938525F381AA411126C2130680069384E1
:10587C00F5FFB384C4024AC02E8922C406C69385A0
:10588C004407EF00D05B2A8419C92320050023228A
:10589C002501310508C41386840681457926B2405A
:1058AC002285224492440249410182801C4DA5E785
:1058BC00411122C406C697070000938767FA1CD5CE
:1058CC0023240504232605042328050483A7018625
:1058DC002A846314F50085471CCD2285352848C0E1
:1058EC0022851D2808C42285052848C44840014645
:1058FC009145EFF03FF008440546A545EFF09FEFCA
:10590C0048440946C945EFF0FFEE8547B2401CCC30
:10591C002244410182808280411126C283A40186E7
:10592C009C4C4AC006C622C42A8981E72685EFF022
:10593C00FFF7938484048044DC40FD1763D6070092
:10594C009C40B1CF8440C5BF0317C40031E7C17779
:10595C008507232204062320040023220400232489
:10596C0004005CC423280400232A0400232C040014
:10597C00214681451305C4054D2C232A0402232CF2
:10598C0004022324040423260404B2402285224466
:10599C0092440249410182801304840679BF9145E7
:1059AC004A85EFF05FEC88C02A8449FDB14723207B
:1059BC00F900E1BF797122D44AD04ECE52CC5AC8EC
:1059CC005EC606D626D256CA2A892E8A13048504A8
:1059DC008149054BFD5B0444832A4400FD1A63D0C6
:1059EC000A0200406DF8B250225492540259624A95
:1059FC00D24A424BB24B4E85F2494561828083D7E5
:105A0C00C400637BFB008397E40063877701A68562
:105A1C004A85029AB3E9A90093848406C1B717A5F5
:105A2C00FF0F1305657282805971CAD02E89839538
:105A3C00E500A2D4A6D286D63284B68463DC0500F7
:105A4C008317C90023A0040093F7070895E3930775
:105A5C0000400DA03000EF100016E34305FE324766
:105A6C00BD67F98F7977BA9793B717009CC0C5B704
:105A7C0093070004B6501CC0265496540659014591
:105A8C006561828083D7C500011122CC06CE26CA5F
:105A9C004AC8898B2E8489CF930774041CC01CC8F8
:105AAC0085475CC8F2406244D24442490561828019
:105ABC00740030002A89EFF03FF7A245AA844A858A
:105ACC00EF00F03701ED8317C40013F7072079FBC3
